{
  "_format": "hh-sol-artifact-1",
  "contractName": "Froggers01",
  "sourceName": "contracts/Froggers01.sol",
  "abi": [
    {
      "inputs": [
        {
          "internalType": "string",
          "name": "_baseTokenURI",
          "type": "string"
        }
      ],
      "stateMutability": "nonpayable",
      "type": "constructor"
    },
    {
      "inputs": [],
      "name": "ApprovalCallerNotOwnerNorApproved",
      "type": "error"
    },
    {
      "inputs": [],
      "name": "ApprovalQueryForNonexistentToken",
      "type": "error"
    },
    {
      "inputs": [],
      "name": "BalanceQueryForZeroAddress",
      "type": "error"
    },
    {
      "inputs": [],
      "name": "MintERC2309QuantityExceedsLimit",
      "type": "error"
    },
    {
      "inputs": [],
      "name": "MintToZeroAddress",
      "type": "error"
    },
    {
      "inputs": [],
      "name": "MintZeroQuantity",
      "type": "error"
    },
    {
      "inputs": [],
      "name": "NotCompatibleWithSpotMints",
      "type": "error"
    },
    {
      "inputs": [
        {
          "internalType": "address",
          "name": "owner",
          "type": "address"
        }
      ],
      "name": "OwnableInvalidOwner",
      "type": "error"
    },
    {
      "inputs": [
        {
          "internalType": "address",
          "name": "account",
          "type": "address"
        }
      ],
      "name": "OwnableUnauthorizedAccount",
      "type": "error"
    },
    {
      "inputs": [],
      "name": "OwnerQueryForNonexistentToken",
      "type": "error"
    },
    {
      "inputs": [],
      "name": "OwnershipNotInitializedForExtraData",
      "type": "error"
    },
    {
      "inputs": [],
      "name": "SequentialMintExceedsLimit",
      "type": "error"
    },
    {
      "inputs": [],
      "name": "SequentialUpToTooSmall",
      "type": "error"
    },
    {
      "inputs": [],
      "name": "SpotMintTokenIdTooSmall",
      "type": "error"
    },
    {
      "inputs": [],
      "name": "TokenAlreadyExists",
      "type": "error"
    },
    {
      "inputs": [],
      "name": "TransferCallerNotOwnerNorApproved",
      "type": "error"
    },
    {
      "inputs": [],
      "name": "TransferFromIncorrectOwner",
      "type": "error"
    },
    {
      "inputs": [],
      "name": "TransferToNonERC721ReceiverImplementer",
      "type": "error"
    },
    {
      "inputs": [],
      "name": "TransferToZeroAddress",
      "type": "error"
    },
    {
      "inputs": [],
      "name": "URIQueryForNonexistentToken",
      "type": "error"
    },
    {
      "anonymous": false,
      "inputs": [
        {
          "indexed": true,
          "internalType": "address",
          "name": "owner",
          "type": "address"
        },
        {
          "indexed": true,
          "internalType": "address",
          "name": "approved",
          "type": "address"
        },
        {
          "indexed": true,
          "internalType": "uint256",
          "name": "tokenId",
          "type": "uint256"
        }
      ],
      "name": "Approval",
      "type": "event"
    },
    {
      "anonymous": false,
      "inputs": [
        {
          "indexed": true,
          "internalType": "address",
          "name": "owner",
          "type": "address"
        },
        {
          "indexed": true,
          "internalType": "address",
          "name": "operator",
          "type": "address"
        },
        {
          "indexed": false,
          "internalType": "bool",
          "name": "approved",
          "type": "bool"
        }
      ],
      "name": "ApprovalForAll",
      "type": "event"
    },
    {
      "anonymous": false,
      "inputs": [
        {
          "indexed": true,
          "internalType": "uint256",
          "name": "fromTokenId",
          "type": "uint256"
        },
        {
          "indexed": false,
          "internalType": "uint256",
          "name": "toTokenId",
          "type": "uint256"
        },
        {
          "indexed": true,
          "internalType": "address",
          "name": "from",
          "type": "address"
        },
        {
          "indexed": true,
          "internalType": "address",
          "name": "to",
          "type": "address"
        }
      ],
      "name": "ConsecutiveTransfer",
      "type": "event"
    },
    {
      "anonymous": false,
      "inputs": [
        {
          "indexed": true,
          "internalType": "address",
          "name": "previousOwner",
          "type": "address"
        },
        {
          "indexed": true,
          "internalType": "address",
          "name": "newOwner",
          "type": "address"
        }
      ],
      "name": "OwnershipTransferred",
      "type": "event"
    },
    {
      "anonymous": false,
      "inputs": [
        {
          "indexed": true,
          "internalType": "address",
          "name": "from",
          "type": "address"
        },
        {
          "indexed": true,
          "internalType": "address",
          "name": "to",
          "type": "address"
        },
        {
          "indexed": true,
          "internalType": "uint256",
          "name": "tokenId",
          "type": "uint256"
        }
      ],
      "name": "Transfer",
      "type": "event"
    },
    {
      "inputs": [],
      "name": "MAX_SUPPLY",
      "outputs": [
        {
          "internalType": "uint256",
          "name": "",
          "type": "uint256"
        }
      ],
      "stateMutability": "view",
      "type": "function"
    },
    {
      "inputs": [
        {
          "internalType": "address",
          "name": "to",
          "type": "address"
        },
        {
          "internalType": "uint256",
          "name": "tokenId",
          "type": "uint256"
        }
      ],
      "name": "approve",
      "outputs": [],
      "stateMutability": "payable",
      "type": "function"
    },
    {
      "inputs": [
        {
          "internalType": "address",
          "name": "owner",
          "type": "address"
        }
      ],
      "name": "balanceOf",
      "outputs": [
        {
          "internalType": "uint256",
          "name": "",
          "type": "uint256"
        }
      ],
      "stateMutability": "view",
      "type": "function"
    },
    {
      "inputs": [],
      "name": "baseTokenURI",
      "outputs": [
        {
          "internalType": "string",
          "name": "",
          "type": "string"
        }
      ],
      "stateMutability": "view",
      "type": "function"
    },
    {
      "inputs": [
        {
          "internalType": "uint256",
          "name": "tokenId",
          "type": "uint256"
        }
      ],
      "name": "getApproved",
      "outputs": [
        {
          "internalType": "address",
          "name": "",
          "type": "address"
        }
      ],
      "stateMutability": "view",
      "type": "function"
    },
    {
      "inputs": [
        {
          "internalType": "address",
          "name": "owner",
          "type": "address"
        },
        {
          "internalType": "address",
          "name": "operator",
          "type": "address"
        }
      ],
      "name": "isApprovedForAll",
      "outputs": [
        {
          "internalType": "bool",
          "name": "",
          "type": "bool"
        }
      ],
      "stateMutability": "view",
      "type": "function"
    },
    {
      "inputs": [
        {
          "internalType": "address",
          "name": "to",
          "type": "address"
        },
        {
          "internalType": "uint256",
          "name": "quantity",
          "type": "uint256"
        }
      ],
      "name": "mint",
      "outputs": [],
      "stateMutability": "nonpayable",
      "type": "function"
    },
    {
      "inputs": [],
      "name": "name",
      "outputs": [
        {
          "internalType": "string",
          "name": "",
          "type": "string"
        }
      ],
      "stateMutability": "view",
      "type": "function"
    },
    {
      "inputs": [],
      "name": "owner",
      "outputs": [
        {
          "internalType": "address",
          "name": "",
          "type": "address"
        }
      ],
      "stateMutability": "view",
      "type": "function"
    },
    {
      "inputs": [
        {
          "internalType": "uint256",
          "name": "tokenId",
          "type": "uint256"
        }
      ],
      "name": "ownerOf",
      "outputs": [
        {
          "internalType": "address",
          "name": "",
          "type": "address"
        }
      ],
      "stateMutability": "view",
      "type": "function"
    },
    {
      "inputs": [],
      "name": "renounceOwnership",
      "outputs": [],
      "stateMutability": "nonpayable",
      "type": "function"
    },
    {
      "inputs": [
        {
          "internalType": "address",
          "name": "from",
          "type": "address"
        },
        {
          "internalType": "address",
          "name": "to",
          "type": "address"
        },
        {
          "internalType": "uint256",
          "name": "tokenId",
          "type": "uint256"
        }
      ],
      "name": "safeTransferFrom",
      "outputs": [],
      "stateMutability": "payable",
      "type": "function"
    },
    {
      "inputs": [
        {
          "internalType": "address",
          "name": "from",
          "type": "address"
        },
        {
          "internalType": "address",
          "name": "to",
          "type": "address"
        },
        {
          "internalType": "uint256",
          "name": "tokenId",
          "type": "uint256"
        },
        {
          "internalType": "bytes",
          "name": "_data",
          "type": "bytes"
        }
      ],
      "name": "safeTransferFrom",
      "outputs": [],
      "stateMutability": "payable",
      "type": "function"
    },
    {
      "inputs": [
        {
          "internalType": "address",
          "name": "operator",
          "type": "address"
        },
        {
          "internalType": "bool",
          "name": "approved",
          "type": "bool"
        }
      ],
      "name": "setApprovalForAll",
      "outputs": [],
      "stateMutability": "nonpayable",
      "type": "function"
    },
    {
      "inputs": [
        {
          "internalType": "string",
          "name": "newBaseURI",
          "type": "string"
        }
      ],
      "name": "setBaseURI",
      "outputs": [],
      "stateMutability": "nonpayable",
      "type": "function"
    },
    {
      "inputs": [
        {
          "internalType": "bytes4",
          "name": "interfaceId",
          "type": "bytes4"
        }
      ],
      "name": "supportsInterface",
      "outputs": [
        {
          "internalType": "bool",
          "name": "",
          "type": "bool"
        }
      ],
      "stateMutability": "view",
      "type": "function"
    },
    {
      "inputs": [],
      "name": "symbol",
      "outputs": [
        {
          "internalType": "string",
          "name": "",
          "type": "string"
        }
      ],
      "stateMutability": "view",
      "type": "function"
    },
    {
      "inputs": [
        {
          "internalType": "uint256",
          "name": "tokenId",
          "type": "uint256"
        }
      ],
      "name": "tokenURI",
      "outputs": [
        {
          "internalType": "string",
          "name": "",
          "type": "string"
        }
      ],
      "stateMutability": "view",
      "type": "function"
    },
    {
      "inputs": [],
      "name": "totalSupply",
      "outputs": [
        {
          "internalType": "uint256",
          "name": "result",
          "type": "uint256"
        }
      ],
      "stateMutability": "view",
      "type": "function"
    },
    {
      "inputs": [
        {
          "internalType": "address",
          "name": "from",
          "type": "address"
        },
        {
          "internalType": "address",
          "name": "to",
          "type": "address"
        },
        {
          "internalType": "uint256",
          "name": "tokenId",
          "type": "uint256"
        }
      ],
      "name": "transferFrom",
      "outputs": [],
      "stateMutability": "payable",
      "type": "function"
    },
    {
      "inputs": [
        {
          "internalType": "address",
          "name": "newOwner",
          "type": "address"
        }
      ],
      "name": "transferOwnership",
      "outputs": [],
      "stateMutability": "nonpayable",
      "type": "function"
    }
  ],
  "bytecode": "0x608060405234801561001057600080fd5b50604051612c08380380612c0883398181016040528101906100329190610418565b336040518060400160405280600b81526020017f46726f67676572732030310000000000000000000000000000000000000000008152506040518060400160405280600681526020017f46524f473031000000000000000000000000000000000000000000000000000081525081600290816100ae9190610682565b5080600390816100be9190610682565b506100cd6101a660201b60201c565b6000819055506100e16101a660201b60201c565b6100ef6101ab60201b60201c565b101561010c5761010b63fed8210f60e01b6101d360201b60201c565b5b5050600073ffffffffffffffffffffffffffffffffffffffff168173ffffffffffffffffffffffffffffffffffffffff16036101805760006040517f1e4fbdf70000000000000000000000000000000000000000000000000000000081526004016101779190610795565b60405180910390fd5b61018f816101dd60201b60201c565b5080600a908161019f9190610682565b50506107b0565b600090565b60007fffffffffffffffffffffffffffffffffffffffffffffffffffffffffffffffff905090565b8060005260046000fd5b6000600960009054906101000a900473ffffffffffffffffffffffffffffffffffffffff16905081600960006101000a81548173ffffffffffffffffffffffffffffffffffffffff021916908373ffffffffffffffffffffffffffffffffffffffff1602179055508173ffffffffffffffffffffffffffffffffffffffff168173ffffffffffffffffffffffffffffffffffffffff167f8be0079c531659141344cd1fd0a4f28419497f9722a3daafe3b4186f6b6457e060405160405180910390a35050565b6000604051905090565b600080fd5b600080fd5b600080fd5b600080fd5b6000601f19601f8301169050919050565b7f4e487b7100000000000000000000000000000000000000000000000000000000600052604160045260246000fd5b61030a826102c1565b810181811067ffffffffffffffff82111715610329576103286102d2565b5b80604052505050565b600061033c6102a3565b90506103488282610301565b919050565b600067ffffffffffffffff821115610368576103676102d2565b5b610371826102c1565b9050602081019050919050565b60005b8381101561039c578082015181840152602081019050610381565b60008484015250505050565b60006103bb6103b68461034d565b610332565b9050828152602081018484840111156103d7576103d66102bc565b5b6103e284828561037e565b509392505050565b600082601f8301126103ff576103fe6102b7565b5b815161040f8482602086016103a8565b91505092915050565b60006020828403121561042e5761042d6102ad565b5b600082015167ffffffffffffffff81111561044c5761044b6102b2565b5b610458848285016103ea565b91505092915050565b600081519050919050565b7f4e487b7100000000000000000000000000000000000000000000000000000000600052602260045260246000fd5b600060028204905060018216806104b357607f821691505b6020821081036104c6576104c561046c565b5b50919050565b60008190508160005260206000209050919050565b60006020601f8301049050919050565b600082821b905092915050565b60006008830261052e7fffffffffffffffffffffffffffffffffffffffffffffffffffffffffffffffff826104f1565b61053886836104f1565b95508019841693508086168417925050509392505050565b6000819050919050565b6000819050919050565b600061057f61057a61057584610550565b61055a565b610550565b9050919050565b6000819050919050565b61059983610564565b6105ad6105a582610586565b8484546104fe565b825550505050565b600090565b6105c26105b5565b6105cd818484610590565b505050565b5b818110156105f1576105e66000826105ba565b6001810190506105d3565b5050565b601f82111561063657610607816104cc565b610610846104e1565b8101602085101561061f578190505b61063361062b856104e1565b8301826105d2565b50505b505050565b600082821c905092915050565b60006106596000198460080261063b565b1980831691505092915050565b60006106728383610648565b9150826002028217905092915050565b61068b82610461565b67ffffffffffffffff8111156106a4576106a36102d2565b5b6106ae825461049b565b6106b98282856105f5565b600060209050601f8311600181146106ec57600084156106da578287015190505b6106e48582610666565b86555061074c565b601f1984166106fa866104cc565b60005b82811015610722578489015182556001820191506020850194506020810190506106fd565b8683101561073f578489015161073b601f891682610648565b8355505b6001600288020188555050505b505050505050565b600073ffffffffffffffffffffffffffffffffffffffff82169050919050565b600061077f82610754565b9050919050565b61078f81610774565b82525050565b60006020820190506107aa6000830184610786565b92915050565b612449806107bf6000396000f3fe60806040526004361061012a5760003560e01c80636352211e116100ab578063a22cb4651161006f578063a22cb465146103b7578063b88d4fde146103e0578063c87b56dd146103fc578063d547cfb714610439578063e985e9c514610464578063f2fde38b146104a15761012a565b80636352211e146102d057806370a082311461030d578063715018a61461034a5780638da5cb5b1461036157806395d89b411461038c5761012a565b806323b872dd116100f257806323b872dd1461021b57806332cb6b0c1461023757806340c10f191461026257806342842e0e1461028b57806355f804b3146102a75761012a565b806301ffc9a71461012f57806306fdde031461016c578063081812fc14610197578063095ea7b3146101d457806318160ddd146101f0575b600080fd5b34801561013b57600080fd5b50610156600480360381019061015191906118c2565b6104ca565b604051610163919061190a565b60405180910390f35b34801561017857600080fd5b5061018161055c565b60405161018e91906119b5565b60405180910390f35b3480156101a357600080fd5b506101be60048036038101906101b99190611a0d565b6105ee565b6040516101cb9190611a7b565b60405180910390f35b6101ee60048036038101906101e99190611ac2565b61064c565b005b3480156101fc57600080fd5b5061020561065c565b6040516102129190611b11565b60405180910390f35b61023560048036038101906102309190611b2c565b6106a9565b005b34801561024357600080fd5b5061024c61096a565b6040516102599190611b11565b60405180910390f35b34801561026e57600080fd5b5061028960048036038101906102849190611ac2565b610970565b005b6102a560048036038101906102a09190611b2c565b6109dd565b005b3480156102b357600080fd5b506102ce60048036038101906102c99190611cb4565b6109fd565b005b3480156102dc57600080fd5b506102f760048036038101906102f29190611a0d565b610a18565b6040516103049190611a7b565b60405180910390f35b34801561031957600080fd5b50610334600480360381019061032f9190611cfd565b610a2a565b6040516103419190611b11565b60405180910390f35b34801561035657600080fd5b5061035f610ac1565b005b34801561036d57600080fd5b50610376610ad5565b6040516103839190611a7b565b60405180910390f35b34801561039857600080fd5b506103a1610aff565b6040516103ae91906119b5565b60405180910390f35b3480156103c357600080fd5b506103de60048036038101906103d99190611d56565b610b91565b005b6103fa60048036038101906103f59190611e37565b610c9c565b005b34801561040857600080fd5b50610423600480360381019061041e9190611a0d565b610cee565b60405161043091906119b5565b60405180910390f35b34801561044557600080fd5b5061044e610d6b565b60405161045b91906119b5565b60405180910390f35b34801561047057600080fd5b5061048b60048036038101906104869190611eba565b610df9565b604051610498919061190a565b60405180910390f35b3480156104ad57600080fd5b506104c860048036038101906104c39190611cfd565b610e8d565b005b60006301ffc9a760e01b827bffffffffffffffffffffffffffffffffffffffffffffffffffffffff1916148061052557506380ac58cd60e01b827bffffffffffffffffffffffffffffffffffffffffffffffffffffffff1916145b806105555750635b5e139f60e01b827bffffffffffffffffffffffffffffffffffffffffffffffffffffffff1916145b9050919050565b60606002805461056b90611f29565b80601f016020809104026020016040519081016040528092919081815260200182805461059790611f29565b80156105e45780601f106105b9576101008083540402835291602001916105e4565b820191906000526020600020905b8154815290600101906020018083116105c757829003601f168201915b5050505050905090565b60006105f982610f13565b61060e5761060d63cf4700e460e01b610fbf565b5b6006600083815260200190815260200160002060000160009054906101000a900473ffffffffffffffffffffffffffffffffffffffff169050919050565b61065882826001610fc9565b5050565b60006106666110f8565b600154600054030390507fffffffffffffffffffffffffffffffffffffffffffffffffffffffffffffffff6106996110fd565b146106a657600854810190505b90565b60006106b482611125565b905073ffffffffffffffffffffffffffffffffffffffff8473ffffffffffffffffffffffffffffffffffffffff161693508373ffffffffffffffffffffffffffffffffffffffff168173ffffffffffffffffffffffffffffffffffffffff16146107295761072863a114810060e01b610fbf565b5b6000806107358461123e565b9150915061074b8187610746611265565b61126d565b610776576107608661075b611265565b610df9565b610775576107746359c896be60e01b610fbf565b5b5b61078386868660016112b1565b801561078e57600082555b600560008773ffffffffffffffffffffffffffffffffffffffff1673ffffffffffffffffffffffffffffffffffffffff168152602001908152602001600020600081546001900391905081905550600560008673ffffffffffffffffffffffffffffffffffffffff1673ffffffffffffffffffffffffffffffffffffffff168152602001908152602001600020600081546001019190508190555061085c856108388888876112b7565b7c0200000000000000000000000000000000000000000000000000000000176112df565b600460008681526020019081526020016000208190555060007c02000000000000000000000000000000000000000000000000000000008416036108e257600060018501905060006004600083815260200190815260200160002054036108e05760005481146108df578360046000838152602001908152602001600020819055505b5b505b600073ffffffffffffffffffffffffffffffffffffffff8673ffffffffffffffffffffffffffffffffffffffff161690508481887fddf252ad1be2c89b69c2b068fc378daa952ba7f163c4a11628f55a4df523b3ef600080a4600081036109545761095363ea553b3460e01b610fbf565b5b610961878787600161130a565b50505050505050565b61271081565b610978611310565b6127108161098461065c565b61098e9190611f89565b11156109cf576040517f08c379a00000000000000000000000000000000000000000000000000000000081526004016109c690612009565b60405180910390fd5b6109d98282611397565b5050565b6109f883838360405180602001604052806000815250610c9c565b505050565b610a05611310565b80600a9081610a1491906121d5565b5050565b6000610a2382611125565b9050919050565b60008073ffffffffffffffffffffffffffffffffffffffff168273ffffffffffffffffffffffffffffffffffffffff1603610a7057610a6f638f4eb60460e01b610fbf565b5b67ffffffffffffffff600560008473ffffffffffffffffffffffffffffffffffffffff1673ffffffffffffffffffffffffffffffffffffffff16815260200190815260200160002054169050919050565b610ac9611310565b610ad3600061151d565b565b6000600960009054906101000a900473ffffffffffffffffffffffffffffffffffffffff16905090565b606060038054610b0e90611f29565b80601f0160208091040260200160405190810160405280929190818152602001828054610b3a90611f29565b8015610b875780601f10610b5c57610100808354040283529160200191610b87565b820191906000526020600020905b815481529060010190602001808311610b6a57829003601f168201915b5050505050905090565b8060076000610b9e611265565b73ffffffffffffffffffffffffffffffffffffffff1673ffffffffffffffffffffffffffffffffffffffff16815260200190815260200160002060008473ffffffffffffffffffffffffffffffffffffffff1673ffffffffffffffffffffffffffffffffffffffff16815260200190815260200160002060006101000a81548160ff0219169083151502179055508173ffffffffffffffffffffffffffffffffffffffff16610c4b611265565b73ffffffffffffffffffffffffffffffffffffffff167f17307eab39ab6107e8899845ad3d59bd9653f200f220920489ca2b5937696c3183604051610c90919061190a565b60405180910390a35050565b610ca78484846106a9565b60008373ffffffffffffffffffffffffffffffffffffffff163b14610ce857610cd2848484846115e3565b610ce757610ce663d1a57ed660e01b610fbf565b5b5b50505050565b6060610cf982610f13565b610d0e57610d0d63a14c4b5060e01b610fbf565b5b6000610d18611712565b90506000815103610d385760405180602001604052806000815250610d63565b80610d42846117a4565b604051602001610d539291906122e3565b6040516020818303038152906040525b915050919050565b600a8054610d7890611f29565b80601f0160208091040260200160405190810160405280929190818152602001828054610da490611f29565b8015610df15780601f10610dc657610100808354040283529160200191610df1565b820191906000526020600020905b815481529060010190602001808311610dd457829003601f168201915b505050505081565b6000600760008473ffffffffffffffffffffffffffffffffffffffff1673ffffffffffffffffffffffffffffffffffffffff16815260200190815260200160002060008373ffffffffffffffffffffffffffffffffffffffff1673ffffffffffffffffffffffffffffffffffffffff16815260200190815260200160002060009054906101000a900460ff16905092915050565b610e95611310565b600073ffffffffffffffffffffffffffffffffffffffff168173ffffffffffffffffffffffffffffffffffffffff1603610f075760006040517f1e4fbdf7000000000000000000000000000000000000000000000000000000008152600401610efe9190611a7b565b60405180910390fd5b610f108161151d565b50565b600081610f1e6110f8565b11610fb957610f2b6110fd565b821115610f5557610f4e60046000848152602001908152602001600020546117f4565b9050610fba565b600054821015610fb85760005b6000600460008581526020019081526020016000205491508103610f915782610f8a90612307565b9250610f62565b60007c01000000000000000000000000000000000000000000000000000000008216149150505b5b5b919050565b8060005260046000fd5b6000610fd483610a18565b905081801561101657508073ffffffffffffffffffffffffffffffffffffffff16610ffd611265565b73ffffffffffffffffffffffffffffffffffffffff1614155b156110425761102c81611027611265565b610df9565b6110415761104063cfb3b94260e01b610fbf565b5b5b836006600085815260200190815260200160002060000160006101000a81548173ffffffffffffffffffffffffffffffffffffffff021916908373ffffffffffffffffffffffffffffffffffffffff160217905550828473ffffffffffffffffffffffffffffffffffffffff168273ffffffffffffffffffffffffffffffffffffffff167f8c5be1e5ebec7d5bd14f71427d1e84f3dd0314c0f7b2291e5b200ac8c7c3b92560405160405180910390a450505050565b600090565b60007fffffffffffffffffffffffffffffffffffffffffffffffffffffffffffffffff905090565b6000816111306110f8565b1161122857600460008381526020019081526020016000205490506111536110fd565b82111561117857611163816117f4565b6112395761117763df2d9b4260e01b610fbf565b5b600081036111ff57600054821061119a5761119963df2d9b4260e01b610fbf565b5b5b600460008360019003935083815260200190815260200160002054905060008103156111fa5760007c010000000000000000000000000000000000000000000000000000000082160315611239576111f963df2d9b4260e01b610fbf565b5b61119b565b60007c010000000000000000000000000000000000000000000000000000000082160315611239575b61123863df2d9b4260e01b610fbf565b5b919050565b60008060006006600085815260200190815260200160002090508092508254915050915091565b600033905090565b600073ffffffffffffffffffffffffffffffffffffffff8316925073ffffffffffffffffffffffffffffffffffffffff821691508382148383141790509392505050565b50505050565b60008060e883901c905060e86112ce868684611835565b62ffffff16901b9150509392505050565b600073ffffffffffffffffffffffffffffffffffffffff83169250814260a01b178317905092915050565b50505050565b61131861183e565b73ffffffffffffffffffffffffffffffffffffffff16611336610ad5565b73ffffffffffffffffffffffffffffffffffffffff16146113955761135961183e565b6040517f118cdaa700000000000000000000000000000000000000000000000000000000815260040161138c9190611a7b565b60405180910390fd5b565b600080549050600082036113b6576113b563b562e8dd60e01b610fbf565b5b6113c360008483856112b1565b6113e3836113d460008660006112b7565b6113dd85611846565b176112df565b6004600083815260200190815260200160002081905550600160406001901b178202600560008573ffffffffffffffffffffffffffffffffffffffff1673ffffffffffffffffffffffffffffffffffffffff16815260200190815260200160002060008282540192505081905550600073ffffffffffffffffffffffffffffffffffffffff8473ffffffffffffffffffffffffffffffffffffffff161690506000810361149b5761149a632e07630060e01b610fbf565b5b6000838301905060008390506114af6110fd565b6001830311156114ca576114c96381647e3a60e01b610fbf565b5b5b808360007fddf252ad1be2c89b69c2b068fc378daa952ba7f163c4a11628f55a4df523b3ef600080a48181600101915081036114cb5781600081905550505050611518600084838561130a565b505050565b6000600960009054906101000a900473ffffffffffffffffffffffffffffffffffffffff16905081600960006101000a81548173ffffffffffffffffffffffffffffffffffffffff021916908373ffffffffffffffffffffffffffffffffffffffff1602179055508173ffffffffffffffffffffffffffffffffffffffff168173ffffffffffffffffffffffffffffffffffffffff167f8be0079c531659141344cd1fd0a4f28419497f9722a3daafe3b4186f6b6457e060405160405180910390a35050565b60008373ffffffffffffffffffffffffffffffffffffffff1663150b7a02611609611265565b8786866040518563ffffffff1660e01b815260040161162b9493929190612385565b6020604051808303816000875af192505050801561166757506040513d601f19601f8201168201806040525081019061166491906123e6565b60015b6116bf573d8060008114611697576040519150601f19603f3d011682016040523d82523d6000602084013e61169c565b606091505b5060008151036116b7576116b663d1a57ed660e01b610fbf565b5b805181602001fd5b63150b7a0260e01b7bffffffffffffffffffffffffffffffffffffffffffffffffffffffff1916817bffffffffffffffffffffffffffffffffffffffffffffffffffffffff191614915050949350505050565b6060600a805461172190611f29565b80601f016020809104026020016040519081016040528092919081815260200182805461174d90611f29565b801561179a5780601f1061176f5761010080835404028352916020019161179a565b820191906000526020600020905b81548152906001019060200180831161177d57829003601f168201915b5050505050905090565b606060a060405101806040526020810391506000825281835b6001156117df57600184039350600a81066030018453600a81049050806117bd575b50828103602084039350808452505050919050565b60007c0100000000000000000000000000000000000000000000000000000000821673ffffffffffffffffffffffffffffffffffffffff8316119050919050565b60009392505050565b600033905090565b60006001821460e11b9050919050565b6000604051905090565b600080fd5b600080fd5b60007fffffffff0000000000000000000000000000000000000000000000000000000082169050919050565b61189f8161186a565b81146118aa57600080fd5b50565b6000813590506118bc81611896565b92915050565b6000602082840312156118d8576118d7611860565b5b60006118e6848285016118ad565b91505092915050565b60008115159050919050565b611904816118ef565b82525050565b600060208201905061191f60008301846118fb565b92915050565b600081519050919050565b600082825260208201905092915050565b60005b8381101561195f578082015181840152602081019050611944565b60008484015250505050565b6000601f19601f8301169050919050565b600061198782611925565b6119918185611930565b93506119a1818560208601611941565b6119aa8161196b565b840191505092915050565b600060208201905081810360008301526119cf818461197c565b905092915050565b6000819050919050565b6119ea816119d7565b81146119f557600080fd5b50565b600081359050611a07816119e1565b92915050565b600060208284031215611a2357611a22611860565b5b6000611a31848285016119f8565b91505092915050565b600073ffffffffffffffffffffffffffffffffffffffff82169050919050565b6000611a6582611a3a565b9050919050565b611a7581611a5a565b82525050565b6000602082019050611a906000830184611a6c565b92915050565b611a9f81611a5a565b8114611aaa57600080fd5b50565b600081359050611abc81611a96565b92915050565b60008060408385031215611ad957611ad8611860565b5b6000611ae785828601611aad565b9250506020611af8858286016119f8565b9150509250929050565b611b0b816119d7565b82525050565b6000602082019050611b266000830184611b02565b92915050565b600080600060608486031215611b4557611b44611860565b5b6000611b5386828701611aad565b9350506020611b6486828701611aad565b9250506040611b75868287016119f8565b9150509250925092565b600080fd5b600080fd5b7f4e487b7100000000000000000000000000000000000000000000000000000000600052604160045260246000fd5b611bc18261196b565b810181811067ffffffffffffffff82111715611be057611bdf611b89565b5b80604052505050565b6000611bf3611856565b9050611bff8282611bb8565b919050565b600067ffffffffffffffff821115611c1f57611c1e611b89565b5b611c288261196b565b9050602081019050919050565b82818337600083830152505050565b6000611c57611c5284611c04565b611be9565b905082815260208101848484011115611c7357611c72611b84565b5b611c7e848285611c35565b509392505050565b600082601f830112611c9b57611c9a611b7f565b5b8135611cab848260208601611c44565b91505092915050565b600060208284031215611cca57611cc9611860565b5b600082013567ffffffffffffffff811115611ce857611ce7611865565b5b611cf484828501611c86565b91505092915050565b600060208284031215611d1357611d12611860565b5b6000611d2184828501611aad565b91505092915050565b611d33816118ef565b8114611d3e57600080fd5b50565b600081359050611d5081611d2a565b92915050565b60008060408385031215611d6d57611d6c611860565b5b6000611d7b85828601611aad565b9250506020611d8c85828601611d41565b9150509250929050565b600067ffffffffffffffff821115611db157611db0611b89565b5b611dba8261196b565b9050602081019050919050565b6000611dda611dd584611d96565b611be9565b905082815260208101848484011115611df657611df5611b84565b5b611e01848285611c35565b509392505050565b600082601f830112611e1e57611e1d611b7f565b5b8135611e2e848260208601611dc7565b91505092915050565b60008060008060808587031215611e5157611e50611860565b5b6000611e5f87828801611aad565b9450506020611e7087828801611aad565b9350506040611e81878288016119f8565b925050606085013567ffffffffffffffff811115611ea257611ea1611865565b5b611eae87828801611e09565b91505092959194509250565b60008060408385031215611ed157611ed0611860565b5b6000611edf85828601611aad565b9250506020611ef085828601611aad565b9150509250929050565b7f4e487b7100000000000000000000000000000000000000000000000000000000600052602260045260246000fd5b60006002820490506001821680611f4157607f821691505b602082108103611f5457611f53611efa565b5b50919050565b7f4e487b7100000000000000000000000000000000000000000000000000000000600052601160045260246000fd5b6000611f94826119d7565b9150611f9f836119d7565b9250828201905080821115611fb757611fb6611f5a565b5b92915050565b7f4d617820737570706c7920657863656564656400000000000000000000000000600082015250565b6000611ff3601383611930565b9150611ffe82611fbd565b602082019050919050565b6000602082019050818103600083015261202281611fe6565b9050919050565b60008190508160005260206000209050919050565b60006020601f8301049050919050565b600082821b905092915050565b60006008830261208b7fffffffffffffffffffffffffffffffffffffffffffffffffffffffffffffffff8261204e565b612095868361204e565b95508019841693508086168417925050509392505050565b6000819050919050565b60006120d26120cd6120c8846119d7565b6120ad565b6119d7565b9050919050565b6000819050919050565b6120ec836120b7565b6121006120f8826120d9565b84845461205b565b825550505050565b600090565b612115612108565b6121208184846120e3565b505050565b5b818110156121445761213960008261210d565b600181019050612126565b5050565b601f8211156121895761215a81612029565b6121638461203e565b81016020851015612172578190505b61218661217e8561203e565b830182612125565b50505b505050565b600082821c905092915050565b60006121ac6000198460080261218e565b1980831691505092915050565b60006121c5838361219b565b9150826002028217905092915050565b6121de82611925565b67ffffffffffffffff8111156121f7576121f6611b89565b5b6122018254611f29565b61220c828285612148565b600060209050601f83116001811461223f576000841561222d578287015190505b61223785826121b9565b86555061229f565b601f19841661224d86612029565b60005b8281101561227557848901518255600182019150602085019450602081019050612250565b86831015612292578489015161228e601f89168261219b565b8355505b6001600288020188555050505b505050505050565b600081905092915050565b60006122bd82611925565b6122c781856122a7565b93506122d7818560208601611941565b80840191505092915050565b60006122ef82856122b2565b91506122fb82846122b2565b91508190509392505050565b6000612312826119d7565b91506000820361232557612324611f5a565b5b600182039050919050565b600081519050919050565b600082825260208201905092915050565b600061235782612330565b612361818561233b565b9350612371818560208601611941565b61237a8161196b565b840191505092915050565b600060808201905061239a6000830187611a6c565b6123a76020830186611a6c565b6123b46040830185611b02565b81810360608301526123c6818461234c565b905095945050505050565b6000815190506123e081611896565b92915050565b6000602082840312156123fc576123fb611860565b5b600061240a848285016123d1565b9150509291505056fea26469706673582212204e0f0310c614314eeb29115d7d3d6790a1ee245a43f4dc6370087c8843202e6264736f6c634300081c0033",
  "linkReferences": {},
  "deployedLinkReferences": {}
}